{
    "_format": "hh-sol-artifact-1",
    "contractName": "FruitVoting",
    "sourceName": "contracts/FruitVoting.sol",
    "abi": [
        {
            "anonymous": false,
            "inputs": [
                {
                    "indexed": false,
                    "internalType": "address",
                    "name": "",
                    "type": "address"
                },
                {
                    "indexed": false,
                    "internalType": "string",
                    "name": "",
                    "type": "string"
                }
            ],
            "name": "Vote",
            "type": "event"
        },
        {
            "inputs": [
                {
                    "internalType": "string",
                    "name": "fruit",
                    "type": "string"
                }
            ],
            "name": "getVotesForFruit",
            "outputs": [
                {
                    "internalType": "uint256",
                    "name": "",
                    "type": "uint256"
                }
            ],
            "stateMutability": "view",
            "type": "function"
        },
        {
            "inputs": [
                {
                    "internalType": "string",
                    "name": "fruit",
                    "type": "string"
                }
            ],
            "name": "voteForFruit",
            "outputs": [],
            "stateMutability": "nonpayable",
            "type": "function"
        }
    ],
    "bytecode": "0x608060405234801561001057600080fd5b5061025c806100206000396000f3fe608060405234801561001057600080fd5b50600436106100365760003560e01c80636d7e263f1461003b578063fdcd2d5814610060575b600080fd5b61004e610049366004610143565b610075565b60405190815260200160405180910390f35b61007361006e366004610143565b6100a0565b005b60008083836040516100889291906101b5565b90815260200160405180910390205490505b92915050565b60008083836040516100b39291906101b5565b9081526020016040518091039020549050806000146100dc576100d78160016101c5565b6100df565b60015b600084846040516100f19291906101b5565b9081526020016040518091039020819055507fc8890be6e657dc734d1fb91641621bd1bc2bf263edd04e4198b4db572cc680f6338484604051610136939291906101e6565b60405180910390a1505050565b6000806020838503121561015657600080fd5b823567ffffffffffffffff8082111561016e57600080fd5b818501915085601f83011261018257600080fd5b81358181111561019157600080fd5b8660208285010111156101a357600080fd5b60209290920196919550909350505050565b8183823760009101908152919050565b8082018082111561009a57634e487b7160e01b600052601160045260246000fd5b6001600160a01b03841681526040602082018190528101829052818360608301376000818301606090810191909152601f909201601f191601019291505056fea2646970667358221220094b7abeb221da95ab0cb0450cc7ebe86a867c5c2bf03d8347616a7e1e78778564736f6c63430008130033",
    "linkReferences": {},
    "deployedLinkReferences": {}
}